:020000009B283B
:10000800FF00030E8301AF000A08B0008A010B1C31
:1000180016280608AA000B10061B1628051816280D
:100028000130AC0030088A002F0E8300FF0E7F0ECF
:020038000900BD
:10003A0083120313F8010830FC00700DF80D7408E0
:10004A00F80203182A28F8070310F00DFC0B2228DF
:02005A0008009C
:0E005C008312031327088A002608820008007A
:10006A002E208A110A128000840AA60A0319A70AF6
:08007A00F003031D3528080006
:100082008312031306082406031D4B282308860047
:10009200A101532806082006031D532822088600C2
:1000A2000130A1000330A5002508003C03188A286E
:1000B200A80105302802031888280A30F400250810
:1000C200F0001D207008AE000A30F4002508F00090
:1000D2001D207808F0007008AD000130880070081B
:1000E20087002730FC00F530FD00FD0B7628FC0B65
:1000F2007628023088002E0887002730FC00F53071
:10010200FD00FD0B8228FC0B8228A80A5A28A503B1
:10011200552806082306031D922820088600A101FF
:100122009A2806082206031D9A2824088600013010
:04013200A100080020
:10013600213083120313A0000530A1001130A20064
:100146000A30A3000C30A400063083169F00051663
:1001560005148701831287018316081088108312FD
:1001660008148814C030831686008312860183160D
:10017600811383120608AA000B108B178B15051E18
:10018600C528C2280F30A9002908003C03180F29EA
:100196002C080319D528AC01412021080319D428BD
:1001A6000F29C5282908033C0318DC2820088600E7
:1001B600DE2822088600AB0105302B0203180D2924
:1001C6000A30F4002908F0001D207008AE000A303D
:1001D600F4002908F0001D207808F0007008AD0032
:1001E60001308800700887002730FC00F530FD00DC
:1001F600FD0BFB28FC0BFB28023088002E0887002D
:100206002730FC00F530FD00FD0B0729FC0B072904
:10021600AB0ADF28A903C7281730A9002908003C24
:10022600031859292C0803191F29AC01412021085C
:1002360003191E2959290F292908033C03182629C1
:1002460024088600282923088600AB0105302B02E6
:10025600031857290A30F4002908F0001D207008F9
:10026600AE000A30F4002908F0001D207808F000DE
:100276007008AD0001308800700887002730FC0048
:10028600F530FD00FD0B4529FC0B452902308800A1
:100296002E0887002730FC00F530FD00FD0B5129A4
:1002A600FC0B5129AB0A2929A9031129C5285A296A
:02400E004A2F37
:00000001FF
